:1000000042C0D2C15BC05AC059C058C057C056C0C8
:1000100055C054C053C052C051C050C04FC04EC054
:100020004DC04CC04BC04AC049C048C047C046C084
:1000300045C044C0090212000101008019090400F2
:1000400000000000000012011001FF000008C016AF
:10005000DC050401010200010E03550053004200BB
:100060006100730070001C037700770077002E009A
:10007000660069007300630068006C002E00640075
:1000800065000403090411241FBECFEFD4E0DEBFD6
:10009000CDBF11E0A0E0B1E0ECE4F2E102C00590D8
:1000A0000D92A230B107D9F721E0A2E0B1E001C082
:1000B0001D92AA34B207E1F7B6D8C6C8A1CF1F93E4
:1000C000CF93DF9360912801635067FF36C0809122
:1000D000010184FF04C0909100019F3F59F494E115
:1000E00002C0915011F183B18370D9F3DF91CF91A8
:1000F0001F910895192F993008F05DC0892F811B39
:10010000809300018091180128E8822780931801CC
:10011000911128C060E089E191E042D184E09FEF35
:100120009093000180930101DACF1092290110927F
:100130002301DF91CF911F910895209125018CE03B
:1001400090E0821B9109EC01C45DDE4F8091240197
:100150008D3209F43EC08091020187FD60C010928B
:100160002801B5CF8091020187FD27C0E0912601CB
:10017000F091270186FF5DC08FEF810F90E001961F
:100180008E0F9F1F29E131E04491D9014C932F5FDD
:100190003F4F31968E179F07B9F7909327018093B1
:1001A0002601612F89E191E0FBD084E0810F1830B6
:1001B00009F4B8CFB4CF18E0A1CF612F89E191E065
:1001C000C8D6182F893068F38FEF809300018EE135
:1001D000A9CF683021F683EC809318018AE58093DB
:1001E00001011092020188818076A1F52A81109286
:1001F0002101998191113DC01092220181E291E08B
:10020000909327018093260182E09F81911104C081
:100210009E81981708F4892F80930001A0CFCE010A
:1002200014D78F3F11F1882309F499CF1092000160
:1002300096CFA9E1B1E08FEF810F90E001968E0F8C
:100240009F1F9F013196E90128812D93E817F90737
:10025000C1F7A3CFCE01F0D48F3FB9F6988197FDB7
:100260008E8190E890930201D7CF8EE180930101B7
:1002700076CF953079F09630F1F09830A1F0993042
:1002800029F19A3061F121E231E030932701209386
:100290002601BBCF2093290121E231E030932701D1
:1002A00020932601B2CF8BE291E0909327018093B7
:1002B000260181E0AACF9B81913051F1923099F1D2
:1002C0009330A9F090E4909302019FCF20932B01EB
:1002D00021E231E0309327012093260196CF81E27D
:1002E00091E0909327018093260181E08ECF222315
:1002F00081F1213019F1223029F788E590E09093BF
:1003000027018093260180E4809302018EE07DCF57
:1003100086E490E0909327018093260180E4809307
:10032000020182E172CF84E390E0909327018093F1
:10033000260180E48093020182E167CF86E690E0A7
:10034000909327018093260180E4809302018CE141
:100350005CCF82E890E0909327018093260180E4AF
:100360008093020184E051CFE9E6F0E08081836070
:100370008083E89A0895A82FB92F80E090E041E0AB
:1003800050EA609530E009C02D91822797958795B6
:1003900010F084279527305EC8F36F5FA8F30895A7
:1003A000EADF8D939D930895CF93CFB7CF93C395F5
:1003B000189BE9F7189B09C0189B07C0189B05C03C
:1003C000189B03C0189B01C0A1C0DF93C0912501F9
:1003D000DD27C45DDE4F189B02C0DF91EBCF2F936A
:1003E0000F931F9303B12FEF00FB20F94F933F931F
:1003F00013B14FEF012700FB21F93BE031C04E7FE5
:10040000012F13B1216028C0102F4D7F2260000002
:1004100003B129C04B7F2460012F000013B12BC012
:1004200013B1477F28602AC04F7E03B120612CC0E2
:100430004F7D13B120622FC04F7B03B1206432C0C7
:10044000422703B149934FEF0000102710FB20F91A
:1004500013B11370C9F1297F91F2012700FB21F933
:1004600003B1237F89F2315058F1102710FB22F994
:1004700013B1277E79F2012700FB23F92F7C81F24B
:1004800003B1102710FB24F92F7971F200C013B1CA
:10049000012700FB25F92F7359F200C003B1102783
:1004A00010FB26F9223040F200C013B1012700FBF7
:1004B00027F9243028F64F77206813B10000F9CFD0
:1004C00011E01CBB002717C03B503195C31BD04027
:1004D00011E01CBB0881033CE9F00B34D9F02091FA
:1004E00023011981110F1213EDCF093641F10D329D
:1004F00011F0013E39F700932A013F914F911F916E
:100500000F912F91DF91CCB3C0FD51CFCF91CFBFD1
:10051000CF91189520912A01222379F31091280177
:10052000112311F5343012F1309328012093240166
:10053000109125013BE0311B3093250117C000913C
:10054000280101308CF40AE53091010134FD10C01E
:1005500000930101C8E1D1E00FC02795A8F45150E4
:10056000A9F4220F0000F9CF4AE503C042ED01C013
:10057000432FC4E1D0E032E014B11360289A14B9DB
:1005800005B120E413E05F93012756E005B92795F4
:1005900020F4515021F4220FF9CF012756E000003A
:1005A0003B5A05B9D0F2279528F4515029F4220F6F
:1005B0000000F9CF012756E0279505B920F45150E6
:1005C00021F4220FF9CF012756E02991332305B9F1
:1005D00021F60C7F10912901110FC651D04005B9A9
:1005E00011F01093230111E01CBB016014B11C7FBA
:1005F000402F4C7F5F9100C000C005B914B945B9C8
:100600007CCF482F58E080E047FD18C02B98440F5E
:10061000880F1C998F5F2D9A36B52091470196B5AA
:10062000931B9217E0F32D9836B52091470196B5AC
:10063000931B9217E0F3515039F708952B9AE7CFA7
:100640008EBD0DB407FEFDCF8EB50895CF93DF9319
:1006500000D000D0CDB7DEB769837A838B839C83CB
:10066000DC01CB0121E1B695A795979587952A9551
:10067000D1F720914601281709F180934601E091B6
:100680004301F09144018DE40995E0914301F0911B
:10069000440180E00995E0914301F091440180918B
:1006A00046010995E0914301F091440180E00F90EB
:1006B0000F900F900F90DF91CF9109940F900F90B2
:1006C0000F900F90DF91CF910895809145018CBDDF
:1006D000809142018DBD0895811110C080E293E0A8
:1006E000909344018093430181E08093470182E528
:1006F0008093450181E08093420108958830F0F0B5
:1007000020E233E0309344012093430110924201F0
:1007100091E0909347018B3069F040F4883059F1B3
:10072000893029F782E58093450108958C30F9F6E8
:100730009093420181E580934501089521E033E0E3
:100740003093440120934301853009F140F4833014
:10075000D1F0843051F488E18093470108958630C8
:1007600079F083E0809347010895823041F480E678
:1007700080934701089583E580934501089580ECB7
:1007800080934701089580E38093470108958CE0AA
:1007900080934701089526B59091470186B5821B45
:1007A0008917E0F3089584B18C6284B92A982D9852
:1007B00026B59091470186B5821B8917E0F32A9AE6
:1007C00026B59091470186B5821B8917E0F32A98D8
:1007D00080914301909144018052934019F010920E
:1007E00046010895809145018CBD809142018DBDE7
:1007F00010924601089584B1837D84B985B1837DCB
:1008000085B91CBC0895CF93DF93D0E2E0914301FA
:10081000F09144018CEA0995E0914301F091440183
:1008200083E50995E0914301F091440180E0099549
:10083000C82FE0914301F091440180E00995C33550
:1008400061F11CBC26B59091470186B5821B8917C2
:10085000E0F32A9A26B59091470186B5821B891745
:10086000E0F32A9826B59091470186B5821B891737
:10087000E0F380914301909144018052934031F024
:10088000D15021F681E0DF91CF910895809145010B
:100890008CBD809142018DBDF3CF80E0DF91CF917F
:1008A0000895CF93DF9300D000D0CDB7DEB7698332
:1008B0007A838B839C8369817A818B819C81C6DE5C
:1008C0008981880F880F880F8870E0914301F0912B
:1008D00044018062099589819A81AB81BC8129E0BC
:1008E000B695A795979587952A95D1F7E0914301FD
:1008F000F0914401099589819A81AB81BC81B695BB
:10090000A79597958795E0914301F091440109954A
:10091000E0914301F091440180E00F900F900F901F
:100920000F90DF91CF910994CF93DF9300D000D047
:1009300000D0CDB7DEB769837A838B839C834D83E8
:100940002E8369817A818B819C8180DE8981880FE9
:10095000880F880F8870E0914301F0914401806412
:10096000099589819A81AB81BC8129E0B695A795CB
:10097000979587952A95D1F7E0914301F09144012D
:10098000099589819A81AB81BC81B695A795979588
:100990008795E0914301F09144010995E09143016D
:1009A000F09144018D8109958E818823E1F09D812C
:1009B0009F3719F186B58D839EE19E8369817A8187
:1009C0008B819C816EDF8F3771F486B59D81891B89
:1009D0008D33A0F386B58D839E8191509E839111B6
:1009E000EDCF81E001C080E026960FB6F894DEBF1F
:1009F0000FBECDBFDF91CF9108958FE0A8D080E0EA
:100A0000F3CFCF93DF9300D000D000D0CDB7DEB7C7
:100A100069837A838B839C834D8369817A818B81FF
:100A20009C8114DEE0914301F09144018CE409952E
:100A300089819A81AB81BC8129E0B695A79597956C
:100A400087952A95D1F7E0914301F09144010995EA
:100A500089819A81AB81BC81B695A7959795879539
:100A6000E0914301F09144010995E0914301F09137
:100A7000440180E009958D818F3F19F196B59D83E2
:100A80008EE18E8369817A818B819C810ADF8F3F21
:100A9000B1F486B59D81891B8D33A0F386B58D8316
:100AA0009E8191509E839111EDCF81E026960FB6E5
:100AB000F894DEBF0FBECDBFDF91CF91089580E0E7
:100AC000F5CF8FE044D080E0F1CFCF93DF93EC01FE
:100AD000E0914301F091440180EA0995E0914301DE
:100AE000F09144018D2F0995E0914301F09144016B
:100AF0008C2F0995E0914301F091440180E0DF9152
:100B0000CF9109941F93CF93DF93D82F192FC62F1E
:100B1000E0914301F091440180EC0995E09143019B
:100B2000F0914401812F0995E0914301F091440136
:100B30008D2F0995E0914301F09144018C2F099587
:100B40008EE105D080E0DF91CF911F910895882339
:100B500049F030E026B596B5921B9C33E0F33F5F39
:100B60008313F8CF0895259A23982B9A50E217D033
:100B70005A95E9F70895AC0188E605D0842F03D093
:100B800089E601D0852F0FD028E030E0382780FBA0
:100B9000869506D02A95D1F730FB02D000D0689414
:100BA00023982B9A16F02B98239AE0914801F09104
:100BB00049013197F0F72D9AE3B1E3FBE091480149
:100BC000F09149013197F0F72D98089520ECE7DF77
:100BD00046F42A95E1F780E02AE1E5DF2A95E9F776
:100BE000DECF28E030E0DBDF869587F938272A95CD
:100BF000D1F7D5DF27F9322772F3D1DFD0CFDB0170
:100C0000742FB9DF84E2BFDFE1DF8D937A95D1F7EE
:100C10000895DB01742FAFDF83EFB5DF8DE1B3DF24
:100C200084E6B1DF8D91AFDF82E7ADDFCFDF807883
:100C3000D9F77A9589F70895CF93DF93EC018981ED
:100C4000813091F1823009F467C0833009F442C0E9
:100C5000843009F465C0873009F47FC0853009F419
:100C600099C0863009F49BC0883009F4EDC0893002
:100C700009F4D9C08A3009F40AC18B3009F4C2C022
:100C80008C3009F40BC18D3009F41DC18E3009F48C
:100C90001FC18F3009F420C1803109F436C18F376C
:100CA00009F44CC180E00AC0329B11C080910E0152
:100CB00013DD10920D01419876DD80E020E131E0F6
:100CC0003093270120932601DF91CF91089585E08D
:100CD00003DDEFCFE0914301F09144018A81099552
:100CE00080931001E0914301F09144018B810995BB
:100CF00080931101E0914301F09144018C810995A9
:100D000080931201E0914301F09144018D81099596
:100D10008093130184E0D2CF6EDD419A80E0CECF84
:100D200080910D0181110EC08A819B81092E000CDA
:100D3000AA0BBB0B8093090190930A01A0930B01AE
:100D4000B0930C018E819F819093080180930701DD
:100D500082E080930F018FEFB1CF80910D0181115F
:100D60000EC08A819B81092E000CAA0BBB0B8093BD
:100D7000090190930A01A0930B01B0930C018E819D
:100D80009F81909308018093070183E080930F0176
:100D90008FEF94CF38DD8093100181E08FCF809169
:100DA0000D0181110EC08A819B81092E000CAA0BB6
:100DB000BB0B8093090190930A01A0930B01B093A0
:100DC0000C018C812D81922F9F709093040190E1F2
:100DD000299FA001112444275F70840F952F911D36
:100DE000909306018093050120FD809303018E817D
:100DF0009F81909308018093070181E080930F0108
:100E00008FEF5CCF8A819B81909349018093480149
:100E10002A9A229A83E09BDE2A98419880E197DE05
:100E2000A2DE80E04BCF81E080930D018A819B811F
:100E3000AC81BD818093090190930A01A0930B01BD
:100E4000B0930C0180E03ACF80910D0181110EC06A
:100E50008A819B81092E000CAA0BBB0B8093090190
:100E600090930A01A0930B01B0930C01109206011C
:100E700010920501109204018E819F8190930801C8
:100E80008093070184E080930F018FEF17CF8A8151
:100E900080930E011092100181E010CF80EC73DE80
:100EA00080E071DE8AE053DE2A9A85E050DE2A98DF
:100EB00085E04DDE84B1837D84B985B1837D85B9BC
:100EC000419A80E0FBCE82DE8093100181E0F6CE75
:100ED0008A8159DE80E0F2CE8A819B81092E000C46
:100EE000AA0BBB0B8093090190930A01A0930B01FD
:100EF000B0930C018E819F8190930801809307012C
:100F000085E080930F018FEFD9CE8A819B81092ED6
:100F1000000CAA0BBB0B8093090190930A01A093CC
:100F20000B01B0930C018E819F81909308018093F7
:100F3000070186E080930F018FEFC0CE81E08093A0
:100F4000100110921101109212011092130184E00D
:100F5000B5CEFF920F931F93CF93DF93382F792F46
:100F6000F62E20910F018EEF820F823028F125306E
:100F700009F062C0462F632F8091090190910A0108
:100F80003EDE8091090190910A01A0910B01B09180
:100F90000C018F0D911DA11DB11D8093090190932E
:100FA0000A01A0930B01B0930C018F2DDF91CF911B
:100FB0001F910F91FF9008956623A9F18091090177
:100FC00090910A01A0910B01B0910C01C32FD72F72
:100FD0000FEF060F0C0F1D2F111D1BC076DD888330
:100FE0008091090190910A01A0910B01B0910C012F
:100FF0000196A11DB11D8093090190930A01A09350
:101000000B01B0930C01C017D10751F020910F01D3
:101010002196223019F7BC01CD0143DC8883E0CF53
:1010200087E08F1510F210920F018F2DDF91CF9175
:101030001F910F91FF900895FF24FA948F2DDF9157
:10104000CF911F910F91FF900895FF920F931F93DF
:10105000CF93DF9300D000D000D0CDB7DEB7382FCC
:10106000792F062F20910F012130F1F12430E1F189
:10107000263009F0D5C0462F682F80910901909144
:101080000A01C7DD8091090190910A01A0910B012D
:10109000B0910C01800F911DA11DB11D809309011C
:1010A00090930A01A0930B01B0930C01809107016A
:1010B00090910801801B910990930801809307018A
:1010C000892B09F0ABC010920F01FF24F3948F2DF0
:1010D00026960FB6F894DEBF0FBECDBFDF91CF913D
:1010E0001F910F91FF900895002309F497C08091FC
:1010F000090190910A01A0910B01B0910C013D836F
:101100007E836D817E816F5F7F4F0150060F172FA9
:10111000111DF12C52C02091050130910601232BA5
:1011200009F059C021E0BC01CD01FEDB209107018F
:1011300030910801215031093093080120930701B3
:101140008091090190910A01A0910B01B0910C01CD
:10115000232B01F510920F012091040121FF38C0CB
:1011600040910301209105013091060142171306B9
:1011700079F1ED81FE8131974081BC01CD0141DCE7
:101180008091090190910A01A0910B01B0910C018D
:10119000FF24F3940196A11DB11D80930901909342
:1011A0000A01A0930B01B0930C01ED81FE810E1793
:1011B0001F0709F48CCF20910F01ED81FE81419131
:1011C000FE83ED83213009F4A6CF642F9BDCAECFE4
:1011D000FF24F394DFCF20E0BC01CD01A5DB80919B
:1011E00003018150809303018111A0CF80910901F7
:1011F00090910A01A0910B01B0910C0189839A830F
:10120000AB83BC83ED81FE8131974081BC01CD0170
:10121000F8DB809105018093030188CFF12C57CF33
:10122000FF24FA9454CF1BB815B883EF8AB98FEF17
:1012300084B914B883E087B99EEF98B985BD94D876
:0C12400078943DD73CD7FDCFF894FFCF49
:02124C00FF5A47
:00000001FF
